{
    "_format": "hh-sol-artifact-1",
    "contractName": "ComplaintManagement",
    "sourceName": "contracts/ComplaintManagement.sol",
    "abi": [
        {
            "inputs": [],
            "stateMutability": "nonpayable",
            "type": "constructor"
        },
        {
            "anonymous": false,
            "inputs": [
                {
                    "indexed": true,
                    "internalType": "uint256",
                    "name": "complaintId",
                    "type": "uint256"
                },
                {
                    "indexed": true,
                    "internalType": "address",
                    "name": "user",
                    "type": "address"
                }
            ],
            "name": "ComplaintRegistered",
            "type": "event"
        },
        {
            "anonymous": false,
            "inputs": [
                {
                    "indexed": true,
                    "internalType": "uint256",
                    "name": "complaintId",
                    "type": "uint256"
                }
            ],
            "name": "ComplaintResolved",
            "type": "event"
        },
        {
            "inputs": [
                {
                    "internalType": "uint256",
                    "name": "",
                    "type": "uint256"
                }
            ],
            "name": "complaints",
            "outputs": [
                {
                    "internalType": "address",
                    "name": "user",
                    "type": "address"
                },
                {
                    "internalType": "bool",
                    "name": "resolved",
                    "type": "bool"
                }
            ],
            "stateMutability": "view",
            "type": "function"
        },
        {
            "inputs": [],
            "name": "getAllComplaints",
            "outputs": [
                {
                    "internalType": "uint256[]",
                    "name": "",
                    "type": "uint256[]"
                }
            ],
            "stateMutability": "view",
            "type": "function"
        },
        {
            "inputs": [],
            "name": "getResolvedComplaints",
            "outputs": [
                {
                    "internalType": "uint256[]",
                    "name": "",
                    "type": "uint256[]"
                }
            ],
            "stateMutability": "view",
            "type": "function"
        },
        {
            "inputs": [],
            "name": "getUnresolvedComplaints",
            "outputs": [
                {
                    "internalType": "uint256[]",
                    "name": "",
                    "type": "uint256[]"
                }
            ],
            "stateMutability": "view",
            "type": "function"
        },
        {
            "inputs": [],
            "name": "owner",
            "outputs": [
                {
                    "internalType": "address",
                    "name": "",
                    "type": "address"
                }
            ],
            "stateMutability": "view",
            "type": "function"
        },
        {
            "inputs": [
                {
                    "internalType": "uint256",
                    "name": "complaintId",
                    "type": "uint256"
                }
            ],
            "name": "registerComplaint",
            "outputs": [],
            "stateMutability": "nonpayable",
            "type": "function"
        },
        {
            "inputs": [
                {
                    "internalType": "uint256",
                    "name": "complaintId",
                    "type": "uint256"
                }
            ],
            "name": "resolveComplaint",
            "outputs": [],
            "stateMutability": "payable",
            "type": "function"
        },
        {
            "inputs": [
                {
                    "internalType": "uint256",
                    "name": "",
                    "type": "uint256"
                }
            ],
            "name": "resolvedComplaints",
            "outputs": [
                {
                    "internalType": "uint256",
                    "name": "",
                    "type": "uint256"
                }
            ],
            "stateMutability": "view",
            "type": "function"
        },
        {
            "inputs": [
                {
                    "internalType": "uint256",
                    "name": "",
                    "type": "uint256"
                }
            ],
            "name": "unresolvedComplaints",
            "outputs": [
                {
                    "internalType": "uint256",
                    "name": "",
                    "type": "uint256"
                }
            ],
            "stateMutability": "view",
            "type": "function"
        }
    ],
    "bytecode": "0x608060405234801561001057600080fd5b50336000806101000a81548173ffffffffffffffffffffffffffffffffffffffff021916908373ffffffffffffffffffffffffffffffffffffffff160217905550610df6806100606000396000f3fe6080604052600436106100865760003560e01c80637e69e912116100595780637e69e912146101475780638da5cb5b14610185578063c35c2a02146101b0578063f760e144146101ed578063fd6450321461020957610086565b80630dac95391461008b5780633ae7db25146100b65780635bfc314c146100e157806378f854371461011e575b600080fd5b34801561009757600080fd5b506100a0610234565b6040516100ad919061098f565b60405180910390f35b3480156100c257600080fd5b506100cb610373565b6040516100d8919061098f565b60405180910390f35b3480156100ed57600080fd5b50610108600480360381019061010391906109e2565b6103cb565b6040516101159190610a1e565b60405180910390f35b34801561012a57600080fd5b50610145600480360381019061014091906109e2565b6103ef565b005b34801561015357600080fd5b5061016e600480360381019061016991906109e2565b61050a565b60405161017c929190610a95565b60405180910390f35b34801561019157600080fd5b5061019a61055b565b6040516101a79190610abe565b60405180910390f35b3480156101bc57600080fd5b506101d760048036038101906101d291906109e2565b61057f565b6040516101e49190610a1e565b60405180910390f35b610207600480360381019061020291906109e2565b6105a3565b005b34801561021557600080fd5b5061021e61086f565b60405161022b919061098f565b60405180910390f35b6060600060038054905060028054905061024e9190610b08565b67ffffffffffffffff81111561026757610266610b3c565b5b6040519080825280602002602001820160405280156102955781602001602082028036833780820191505090505b50905060005b6002805490508110156102f957600281815481106102bc576102bb610b6b565b5b90600052602060002001548282815181106102da576102d9610b6b565b5b60200260200101818152505080806102f190610b9a565b91505061029b565b5060005b60038054905081101561036b576003818154811061031e5761031d610b6b565b5b9060005260206000200154828260028054905061033b9190610b08565b8151811061034c5761034b610b6b565b5b602002602001018181525050808061036390610b9a565b9150506102fd565b508091505090565b606060028054806020026020016040519081016040528092919081815260200182805480156103c157602002820191906000526020600020905b8154815260200190600101908083116103ad575b5050505050905090565b600381815481106103db57600080fd5b906000526020600020016000915090505481565b60405180604001604052803373ffffffffffffffffffffffffffffffffffffffff168152602001600015158152506001600083815260200190815260200160002060008201518160000160006101000a81548173ffffffffffffffffffffffffffffffffffffffff021916908373ffffffffffffffffffffffffffffffffffffffff16021790555060208201518160000160146101000a81548160ff02191690831515021790555090505060028190806001815401808255809150506001900390600052602060002001600090919091909150553373ffffffffffffffffffffffffffffffffffffffff16817fdbfc215eac80d10d94f6ebf65f8fffcfbc79181afc4e2c624d6cceb9422658a160405160405180910390a350565b60016020528060005260406000206000915090508060000160009054906101000a900473ffffffffffffffffffffffffffffffffffffffff16908060000160149054906101000a900460ff16905082565b60008054906101000a900473ffffffffffffffffffffffffffffffffffffffff1681565b6002818154811061058f57600080fd5b906000526020600020016000915090505481565b60006001600083815260200190815260200160002060000160009054906101000a900473ffffffffffffffffffffffffffffffffffffffff1690508073ffffffffffffffffffffffffffffffffffffffff163373ffffffffffffffffffffffffffffffffffffffff161461064c576040517f08c379a000000000000000000000000000000000000000000000000000000000815260040161064390610c65565b60405180910390fd5b600073ffffffffffffffffffffffffffffffffffffffff168173ffffffffffffffffffffffffffffffffffffffff16036106bb576040517f08c379a00000000000000000000000000000000000000000000000000000000081526004016106b290610cd1565b60405180910390fd5b6001600083815260200190815260200160002060000160149054906101000a900460ff161561071f576040517f08c379a000000000000000000000000000000000000000000000000000000000815260040161071690610d3d565b60405180910390fd5b600180600084815260200190815260200160002060000160146101000a81548160ff02191690831515021790555060005b60028054905081101561081457826002828154811061077257610771610b6b565b5b90600052602060002001540361080157600260016002805490506107969190610d5d565b815481106107a7576107a6610b6b565b5b9060005260206000200154600282815481106107c6576107c5610b6b565b5b906000526020600020018190555060028054806107e6576107e5610d91565b5b60019003818190600052602060002001600090559055610814565b808061080c90610b9a565b915050610750565b506003829080600181540180825580915050600190039060005260206000200160009091909190915055817fd26d73beab97391bb9b226331b35668847e983fc340816389ece17cac75fd2b260405160405180910390a25050565b606060038054806020026020016040519081016040528092919081815260200182805480156108bd57602002820191906000526020600020905b8154815260200190600101908083116108a9575b5050505050905090565b600081519050919050565b600082825260208201905092915050565b6000819050602082019050919050565b6000819050919050565b610906816108f3565b82525050565b600061091883836108fd565b60208301905092915050565b6000602082019050919050565b600061093c826108c7565b61094681856108d2565b9350610951836108e3565b8060005b83811015610982578151610969888261090c565b975061097483610924565b925050600181019050610955565b5085935050505092915050565b600060208201905081810360008301526109a98184610931565b905092915050565b600080fd5b6109bf816108f3565b81146109ca57600080fd5b50565b6000813590506109dc816109b6565b92915050565b6000602082840312156109f8576109f76109b1565b5b6000610a06848285016109cd565b91505092915050565b610a18816108f3565b82525050565b6000602082019050610a336000830184610a0f565b92915050565b600073ffffffffffffffffffffffffffffffffffffffff82169050919050565b6000610a6482610a39565b9050919050565b610a7481610a59565b82525050565b60008115159050919050565b610a8f81610a7a565b82525050565b6000604082019050610aaa6000830185610a6b565b610ab76020830184610a86565b9392505050565b6000602082019050610ad36000830184610a6b565b92915050565b7f4e487b7100000000000000000000000000000000000000000000000000000000600052601160045260246000fd5b6000610b13826108f3565b9150610b1e836108f3565b9250828201905080821115610b3657610b35610ad9565b5b92915050565b7f4e487b7100000000000000000000000000000000000000000000000000000000600052604160045260246000fd5b7f4e487b7100000000000000000000000000000000000000000000000000000000600052603260045260246000fd5b6000610ba5826108f3565b91507fffffffffffffffffffffffffffffffffffffffffffffffffffffffffffffffff8203610bd757610bd6610ad9565b5b600182019050919050565b600082825260208201905092915050565b7f596f7520617265206e6f7420617574686f72697a656420746f207265736f6c7660008201527f65207468697320636f6d706c61696e7400000000000000000000000000000000602082015250565b6000610c4f603083610be2565b9150610c5a82610bf3565b604082019050919050565b60006020820190508181036000830152610c7e81610c42565b9050919050565b7f436f6d706c61696e7420646f6573206e6f742065786973740000000000000000600082015250565b6000610cbb601883610be2565b9150610cc682610c85565b602082019050919050565b60006020820190508181036000830152610cea81610cae565b9050919050565b7f436f6d706c61696e7420697320616c7265616479207265736f6c766564000000600082015250565b6000610d27601d83610be2565b9150610d3282610cf1565b602082019050919050565b60006020820190508181036000830152610d5681610d1a565b9050919050565b6000610d68826108f3565b9150610d73836108f3565b9250828203905081811115610d8b57610d8a610ad9565b5b92915050565b7f4e487b7100000000000000000000000000000000000000000000000000000000600052603160045260246000fdfea26469706673582212206d246d6ea88339bb42658005c9ce5edbcc7cb90e4863f8348816cb2b562fc86964736f6c63430008110033",
    "linkReferences": {},
    "deployedLinkReferences": {}
}